:100000000C942D010C94B9070C94B9060C944A0178
:100010000C944A010C9449070C944A010C9413095E
:100020000C944A010C944A010C944A010C944A0124
:100030000C944A010C944A010C944A010C944A0114
:100040000C944A010C944A010C944A010C944A0104
:100050000C944A010C944A010C944A010C944A01F4
:100060000C944A010C944A015D01AE010102540254
:10007000A702FA024D03A003F303000000000000F2
:10008000005F00000007000700147F147F14242A7B
:100090007F2A122313086462364955225000050353
:1000A0000000001C2241000041221C0014083E08F0
:1000B0001408083E08080050300000080808080826
:1000C000006060000020100804023E5149453E00D7
:1000D000427F400042615149462141454B3118144D
:1000E000127F1027454545393C4A4949300171097D
:1000F00005033649494936064949291E0036360066
:100100000000563600000814224100141414141480
:1001100000412214080201510906324979413E7E0C
:100120001111117E7F494949363E414141227F41AB
:1001300041221C7F494949417F090909013E414942
:10014000497A7F0808087F00417F41002040413FF5
:10015000017F081422417F404040407F020C027F13
:100160007F0408107F3E4141413E7F090909063E58
:100170004151215E7F09192946464949493101010A
:100180007F01013F4040403F1F2040201F3F40383B
:10019000403F63140814630708700807615149451C
:1001A00043007F41410002040810200041417F00CC
:1001B00004020102044040404040000102040020CB
:1001C000545454787F484444383844444420384494
:1001D00044487F3854545418087E0901020C525286
:1001E000523E7F0804047800447D40002040443D96
:1001F000007F1028440000417F40007C04180478F0
:100200007C0804047838444444387C1414140808E6
:100210001414187C7C080404084854545420043FE7
:100220004440203C4040207C1C2040201C3C40306E
:10023000403C44281028440C5050503C4464544CDA
:1002400044000836410000007F00000041360800ED
:100250001008081008000000000011241FBECFEF96
:10026000D8E0DEBFCDBF11E0A0E0B1E0ECECFCE1F6
:1002700002C005900D92AC38B107D9F723E0ACE885
:10028000B1E001C01D92AD39B207E1F70E94270528
:100290000C94640E0C940000CF92DF92EF92FF92C8
:1002A0000F931F9390E0FC013197E930F10508F0BE
:1002B000EBC2EC5CFF4F0C94650B00919801109120
:1002C000990120919A0130919B0180919001909128
:1002D0009101A0919201B091930168017901C81A2E
:1002E000D90AEA0AFB0AD701C6018A3F9105A1058E
:1002F000B105C0F04423B1F080919E018F5F8093DF
:100300009E010093900110939101209392013093EC
:100310009301843009F0BBC281E0FB01808310921D
:100320009E01B5C28A3F9105A105B10508F4AFC28F
:100330004111ADC281E0FB018083809198019091D1
:100340009901A0919A01B0919B01809390019093A3
:100350009101A0939201B093930199C200919801E9
:100360001091990120919A0130919B018091900107
:1003700090919101A0919201B0919301680179014E
:10038000C81AD90AEA0AFB0AD701C60154EFC516F2
:1003900051E0D506E104F104C0F04423B1F08091AE
:1003A0009E018F5F80939E010093900110939101B5
:1003B0002093920130939301843009F068C281E068
:1003C000FB01808310929E0162C2843F9140A1058F
:1003D000B10508F45CC241115AC281E0FB0180837F
:1003E0008091980190919901A0919A01B0919B01FF
:1003F0008093900190939101A0939201B093930107
:1004000046C2009198011091990120919A01309172
:100410009B018091900190919101A0919201B091E6
:10042000930168017901C81AD90AEA0AFB0AD701BF
:10043000C6015EEEC51652E0D506E104F104C0F037
:100440004423B1F080919E018F5F80939E010093C1
:100450009001109391012093920130939301843085
:1004600009F015C281E0FB01808310929E010FC24A
:100470008E3E9240A105B10508F409C2411107C2A0
:1004800081E0FB0180838091980190919901A09176
:100490009A01B0919B018093900190939101A09358
:1004A0009201B0939301F3C10091980110919901C9
:1004B00020919A0130919B0180919001909191013E
:1004C000A0919201B091930168017901C81AD90AEB
:1004D000EA0AFB0AD701C60158EEC51653E0D50655
:1004E000E104F104C0F04423B1F080919E018F5FDC
:1004F00080939E01009390011093910120939201AB
:1005000030939301843009F0C2C181E0FB01808304
:1005100010929E01BCC1883E9340A105B10508F42C
:10052000B6C14111B4C181E0FB0180838091980183
:1005300090919901A0919A01B0919B0180939001B3
:1005400090939101A0939201B0939301A0C1009167
:1005500098011091990120919A0130919B0180910D
:10056000900190919101A0919201B0919301680145
:100570007901C81AD90AEA0AFB0AD701C60152EE64
:10058000C51654E0D506E104F104C0F04423B1F0EF
:1005900080919E018F5F80939E0100939001109344
:1005A00091012093920130939301843009F06FC13F
:1005B00081E0FB01808310929E0169C1823E9440DC
:1005C000A105B10508F463C1411161C181E0FB01DE
:1005D00080838091980190919901A0919A01B091A6
:1005E0009B018093900190939101A0939201B0930D
:1005F00093014DC1009198011091990120919A01A8
:1006000030919B018091900190919101A091920174
:10061000B091930168017901C81AD90AEA0AFB0A64
:10062000D701C6015CEDC51655E0D506E104F1041D
:10063000C0F04423B1F080919E018F5F80939E01B2
:1006400000939001109391012093920130939301B4
:10065000843009F01CC181E0FB01808310929E016F
:1006600016C18C3D9540A105B10508F410C141119A
:100670000EC181E0FB0180838091980190919901E6
:10068000A0919A01B0919B01809390019093910168
:10069000A0939201B0939301FAC000919801109138
:1006A000990120919A0130919B0180919001909144
:1006B0009101A0919201B091930168017901C81A4A
:1006C000D90AEA0AFB0AD701C60156EDC51656E05B
:1006D000D506E104F104C0F04423B1F080919E01FD
:1006E0008F5F80939E01009390011093910120935E
:1006F000920130939301843009F0C9C081E0FB017D
:10070000808310929E01C3C0863D9640A105B1052D
:1007100008F4BDC04111BBC081E0FB018083809122
:10072000980190919901A0919A01B0919B018093B9
:10073000900190939101A0939201B0939301A7C06F
:10074000009198011091990120919A0130919B019B
:100750008091900190919101A0919201B0919301AB
:1007600068017901C81AD90AEA0AFB0AD701C60149
:1007700050EDC51657E0D506E104F104C0F044235E
:10078000B1F080919E018F5F80939E010093900154
:10079000109391012093920130939301843009F0DA
:1007A00076C081E0FB01808310929E0170C0803D85
:1007B0009740A105B10508F46AC0411168C081E005
:1007C000FB0180838091980190919901A0919A01F9
:1007D000B0919B018093900190939101A09392011D
:1007E000B093930154C00091980110919901209108
:1007F0009A0130919B018091900190919101A0917B
:100800009201B091930168017901C81AD90AEA0AE4
:10081000FB0AD701C6015AECC51658E0D506E1041B
:10082000F104B8F04423A9F080919E018F5F80937A
:100830009E010093900110939101209392013093B7
:100840009301843021F581E0FB01808310929E01A9
:100850001EC0843C9940A105B105C8F0411117C0E4
:1008600081E0FB0180838091980190919901A09192
:100870009A01B0919B018093900190939101A09374
:100880009201B093930103C081E0FB0180831F912B
:100890000F91FF90EF90DF90CF9008954C9915C085
:1008A0002091A20121110AC080919D01811123C0D4
:1008B00091E0811190E090939D010895FC012081C9
:1008C0002930C8F42F5F208308954D9914C02091DA
:1008D000A20121110AC080919D01882361F091E05D
:1008E000811190E090939D010895FC0120812230B8
:1008F00010F0215020830895AF92BF92CF92DF92E3
:10090000EF92FF920F931F93CF93DF93CDB7DEB794
:1009100029970FB6F894DEBF0FBECDBF5C01362F0E
:10092000842F99E0E3E0F1E0DE01119601900D9251
:100930009A95E1F79091A001911152C040919F01C9
:1009400041114EC0F50190819430C0F4E1E0F0E037
:10095000EC0FFD1FE90FF11D808185B9B801832FD0
:100960000E944C01F8018081813009F05FC0F501DF
:1009700080818F5F8083F801108258C03CEF390F6F
:100980003430C0F4E1E0F0E0EC0FFD1FE90FF11DA1
:10099000908195B940E0B7010E944C01F701808138
:1009A000813009F043C0F50180818F5F8083F701BA
:1009B00010823CC0E1E0F0E0EC0FFD1FE90FF11DFB
:1009C000808185B941E0B601822F0E944C01F60179
:1009D0008081813059F5F5011082F601108226C020
:1009E000913099F484E085B941E0B70189E00E9433
:1009F0004C01F70180818130C9F410821092A0016E
:100A00000E940D0A0E94EB0A11C015B841E0B8011E
:100A100089E00E944C01F8018081813039F4108214
:100A200010929F010E940D0A0E94EB0A29960FB6B0
:100A3000F894DEBF0FBECDBFDF91CF911F910F9114
:100A4000FF90EF90DF90CF90BF90AF900895CF933D
:100A5000DF9300D000D0CDB7DEB792E09093B00026
:100A600084E08093B10029EF2093B300909370004D
:100A70009EED97B990E49AB99FE094B99BEB9BB92E
:100A80009AE09093690093E09DBB8093680093E3A4
:100A900090936D0095E490937C0097EE90937A008C
:100AA00010927B0091E290937E0093E894BD85BD07
:100AB0008DE487BD78940E94B50919821A821B8241
:100AC0001C82CE0104966C0101977C018E010E5FA1
:100AD0001F4F209100014091010160910201029796
:100AE0000E947C04EECFBF92CF92DF92EF92FF92F2
:100AF0000F931F93CF93DF93CDB7DEB72A970FB62F
:100B0000F894DEBF0FBECDBFC82ED42EB22E1F92DA
:100B10006F930F2EFCE0EF2EF1E0FF2EF02DFF92F1
:100B2000EF92CE0101969F938F930E947A0B1F92B2
:100B3000CF92FF92EF92CE0103969F938F930E94E4
:100B40007A0B1F92DF92FF92EF92CE0105969F9350
:100B50008F930E947A0B1F930F93FF92EF92CE0117
:100B600007969F938F930E947A0B8091A0010FB6F6
:100B7000F894DEBF0FBECDBF811181C090919F015F
:100B800091117DC060E00E94E60A61E08FE091E093
:100B90000E94D50A60E08EE10E94E60A80919D01E4
:100BA000882331F061E084E191E00E94D50A05C01C
:100BB00061E086E191E00E94D50A6AE080E00E944F
:100BC000E60A61E088E191E00E94D50A6AE08EE1E0
:100BD0000E94E60A61E0CE0101960E94D50A64E116
:100BE00080E00E94E60A61E08DE191E00E94D50A72
:100BF00064E18EE10E94E60A61E0CE0103960E9464
:100C0000D50A6EE180E00E94E60A61E082E291E0AE
:100C10000E94D50A6EE18EE10E94E60A61E0CE01F3
:100C200005960E94D50ABB0C6B2D660F660F6B0DE7
:100C300088E20E94E60A61E087E291E00E94D50A1C
:100C400011E006C041E0612F8DE20E94240A1F5F7F
:100C50001D32C0F369E182E30E94E60A62E0CE0140
:100C600007960E94D50A68E282E30E94E60A61E0E4
:100C700089E291E00E94D50A0E94EB0A41C08130CE
:100C8000B9F40E940D0A60E080E00E94E60A61E08B
:100C90008FE291E00E94D50A6CE080E00E94E60AB3
:100CA00061E08BE391E00E94D50A0E94EB0A28C024
:100CB0000E940D0A60E080E00E94E60A61E089E49B
:100CC00091E00E94D50A6CE080E00E94E60A61E0B3
:100CD00083E591E00E94D50A69E180E00E94E60A7E
:100CE00061E081E691E00E94D50A63E280E00E9423
:100CF000E60A61E080E791E00E94D50A0E94EB0AD3
:100D00002A960FB6F894DEBF0FBECDBFDF91CF910C
:100D10001F910F91FF90EF90DF90CF90BF900895BB
:100D2000CF93DF93D82FC0E00FC06C2F660F862FB4
:100D3000880F880F680F88E20E94E60A61E086E863
:100D400091E00E94D50ACF5FC43078F38D2F880FD1
:100D5000682F660F660F680F88E20E94E60A61E05E
:100D600087E291E00E94D50A0E94EB0ADF91CF91C1
:100D700008951F920F920FB60F9211242F933F9355
:100D80004F935F936F937F938F939F93AF93BF9393
:100D9000EF93FF938091A201833019F41092A20186
:100DA00003C08F5F8093A2018091A2010E949006F0
:100DB000FF91EF91BF91AF919F918F917F916F9133
:100DC0005F914F913F912F910F900FBE0F901F9009
:100DD000189581E080930001809196019091970190
:100DE0008C33910538F481E08093010189E0809390
:100DF000020108958837910538F482E0809301015B
:100E000088E0809302010895843B910538F483E0E3
:100E10008093010187E0809302010895803F91054E
:100E200038F484E08093010186E080930201089504
:100E30008C3221E0920730F485E0809301018093A9
:100E400002010895883621E0920738F486E0809305
:100E5000010184E0809302010895843A21E0920721
:100E600038F487E08093010183E0809302010895C4
:100E7000803E914038F488E08093010182E08093C5
:100E80000201089589E08093010181E080930201CD
:100E900008951F920F920FB60F9211240F931F9374
:100EA0002F933F934F935F936F937F938F939F9372
:100EB000AF93BF93EF93FF93489904C081E0809371
:100EC000A00144C0499904C081E080939F013EC0C5
:100ED0008091A201811118C080E090E00E944E0430
:100EE00080919D0181110E94E90600919601109167
:100EF00097012091A2014091000160910101809130
:100F000002010E94730522C010929D01813029F4D4
:100F100081E091E00E944E040BC0823029F482E00F
:100F200091E00E944E0404C080E091E00E944E04D3
:100F300000919601109197012091A201409100012A
:100F400060910101809102010E947305FF91EF9170
:100F5000BF91AF919F918F917F916F915F914F91D1
:100F60003F912F911F910F910F900FBE0F901F90E7
:100F700018951F920F920FB60F9211240F931F9383
:100F80002F933F934F935F936F937F938F939F9391
:100F9000AF93BF93EF93FF9320919401309195010C
:100FA0002F5F3F4F309395012093940180919C01D6
:100FB0008823C1F0ADECBCEC0E946B0B9695879535
:100FC000969587954CE3489F9001499F300D1124D9
:100FD000309397012093960110929C0110929501F5
:100FE0001092940180919D0181110E94E9068091E7
:100FF000A001811112C080919F0181110EC000914A
:101000009601109197012091A201409100016091F9
:101010000101809102010E947305FF91EF91BF9140
:10102000AF919F918F917F916F915F914F913F9180
:101030002F911F910F910F900FBE0F901F90189539
:10104000EF92FF920F931F93CF93DF93CDB7DEB74D
:1010500027970FB6F894DEBF0FBECDBF7C01198273
:101060001A821B821C8280918F01882319F08130A3
:10107000B9F02AC0209178003091790040E050E02A
:1010800068E17CE98FE090E00E94460B285E3340E7
:1010900030938E0120938D0180E480937C0014C0F6
:1010A000209178003091790042E3429FC001439F34
:1010B000900D11246FEF73E00E94100B6B5F609333
:1010C0008C0185E480937C0080918F01811104C0A4
:1010D0008F5F80938F0102C010928F0180918E01EB
:1010E0008F9380918D018F930CE011E01F930F93EC
:1010F000CE0101969F938F930E947A0B80918C0171
:101100001F928F931F930F93CE0105969F938F93FA
:101110000E947A0B8091A0010FB6F894DEBF0FBE3B
:10112000CDBF811152C080919F0181114EC068E2F4
:101130000E94E60A61E08FE791E00E94D50A68E22A
:101140008EE10E94E60A61E085E891E00E94D50AFE
:1011500068E28EE10E94E60A61E085E891E00E9483
:10116000D50A68E28EE10E94E60A61E0CE010596AA
:101170000E94D50A60E082E30E94E60A62E084E809
:1011800091E00E94D50A60E082E30E94E60A62E0F4
:10119000CE0101960E94D50A6FE082E30E94E60A22
:1011A00061E088E891E00E94D50A0E94EB0A009174
:1011B0009601109197012091A20140910001609148
:1011C0000101809102010E94730580918C018B3096
:1011D00020F081E0F701808319C080918D0190910A
:1011E0008E018D32914018F0F70110820FC080916E
:1011F000960190919701892B11F4489904C081E0E0
:10120000F701808303C082E0F701808327960FB641
:10121000F894DEBF0FBECDBFDF91CF911F910F912C
:10122000FF90EF9008951F920F920FB60F92112426
:10123000CF92DF92EF92FF922F933F934F935F9362
:101240006F937F938F939F93AF93BF93EF93FF938E
:10125000C0909801D0909901E0909A01F0909B0184
:101260008FEFC81AD80AE80AF80AC0929801D092FB
:101270009901E0929A01F0929B01C701B60128E81A
:1012800033E140E050E00E94240B672B682B692B70
:1012900019F481E080939C01C701B6012AEF30E088
:1012A00040E050E00E94240B672B682B692B89F4E7
:1012B00081EA91E00E9420088091A101813019F417
:1012C0008FEF87BD06C0823019F48DE487BD01C061
:1012D00017BCFF91EF91BF91AF919F918F917F913B
:1012E0006F915F914F913F912F91FF90EF90DF9021
:1012F000CF900F900FBE0F901F90189598B1977FC9
:1013000098B9662329F098B1946098B990E01FC00D
:1013100098B19B7F98B9FACF47E050E0491B51093B
:10132000282F30E002C0359527954A95E2F720FF37
:1013300004C028B1226028B903C028B12D7F28B984
:1013400028B1206428B928B12F7B28B99F5F983035
:1013500018F388B1886088B9089560E00E947E091A
:10136000089561E00E947E090895CF93DF9387B1CD
:10137000886087B987B1806187B987B1846087B990
:1013800087B1826087B987B1806487B988B180618D
:1013900088B988B1886088B983EC99E00197F1F742
:1013A00000C0000088B18F7E88B98BE594E4019776
:1013B000F1F700C0000088B1806188B988B1877FEB
:1013C00088B981E20E94AD0983E10E94AD0986E0FF
:1013D0000E94AD0982EC0E94AD0980E20E94AD0935
:1013E00089E00E94AD0980E80E94AD0980E40E9476
:1013F000AD09C0E0D0E004C080E00E94B1092196B0
:10140000C83F91E0D907C0F388E00E94AD098CE0A5
:101410000E94AD09DF91CF91089580E80E94AD0947
:1014200080E40E94AD0910929B0310929C0380E01F
:1014300090E005C0FC01ED55FE4F10820196883FFB
:1014400021E09207B8F30895262F26952695269534
:1014500090E034E5239F800D911D1124442379F001
:10146000677021E030E002C0220F331F6A95E2F777
:10147000FC01ED55FE4F8081282B20830895677075
:1014800021E030E002C0220F331F6A95E2F7FC0131
:10149000ED55FE4F20958081282320830895EF92FB
:1014A000FF920F931F93CF93DF93E82EF62E00E069
:1014B00045C02E2D30E020523109802F6F2D0E9423
:1014C000040BF901EE0FFF1FEE0FFF1FE20FF31FDA
:1014D000E80FF11DE658FF4FE491812F0E94040BA5
:1014E000F0E002C0F595E7958A95E2F7E0FF0AC0C3
:1014F00060919C0380919B03610F41E0800F0E94EB
:10150000240A09C060919C0380919B03610F40E015
:10151000800F0E94240A1F5F01C010E0212F30E0DD
:10152000CE01880F991F880F991F880F991F8C1B58
:101530009D0B281739070CF4BCCF0F5F202F30E02C
:10154000CF2DD0E0CE01880F991F880F991F8C0FE7
:101550009D1F281739070CF3EBE9F3E08F2D880F57
:10156000880F8F0D9081890F8F5F8083843570F095
:1015700010929B03ECE9F3E08F2D880F880F880F02
:10158000982F9F198081890F8F5F808380919C03A2
:10159000803320F010929B0310929C03DF91CF9137
:1015A0001F910F91FF90EF9008951F93CF93DF93BA
:1015B000EC01162F04C02196612F0E944F0A8881EA
:1015C0008111F9CFDF91CF911F91089580939B03F3
:1015D00060939C030895CF93DF9380E80E94AD0948
:1015E00080E40E94AD09C0E0D0E007C0FE01ED55E7
:1015F000FE4F80810E94B1092196C83F81E0D80743
:10160000A8F3DF91CF910895991B79E004C0991F49
:10161000961708F0961B881F7A95C9F7809508954C
:10162000AA1BBB1B51E107C0AA1FBB1FA617B70708
:1016300010F0A61BB70B881F991F5A95A9F7809524
:101640009095BC01CD010895A1E21A2EAA1BBB1BE7
:10165000FD010DC0AA1FBB1FEE1FFF1FA217B3077E
:10166000E407F50720F0A21BB30BE40BF50B661F94
:10167000771F881F991F1A9469F760957095809558
:1016800090959B01AC01BD01CF010895052E97FBFC
:101690001EF400940E945D0B57FD07D00E94240B9E
:1016A00007FC03D04EF40C945D0B5095409530959B
:1016B00021953F4F4F4F5F4F0895909580957095BE
:1016C00061957F4F8F4F9F4F0895EE0FFF1F05903D
:1016D000F491E02D0994A29FB001B39FC001A39F94
:1016E000700D811D1124911DB29F700D811D11245B
:1016F000911D0895AEE0B0E0E0E8FBE00C943B0EF5
:101700000D891E8986E08C831A8309838FEF9FE7FA
:101710009E838D83AE01475E5F4F6F89788DCE01CA
:1017200001960E949C0BEF81F885E00FF11F10825B
:101730002E96E4E00C94570EABE0B0E0E2EAFBE05A
:101740000C942D0E6C017B018A01FC01178216821C
:10175000838181FFCCC1CE0101963C01F6019381CA
:10176000F70193FD859193FF81917F01882309F40F
:10177000BAC1853239F493FD859193FF81917F0140
:10178000853229F4B60190E00E94930DE7CF912CA9
:10179000212C312CFFE1F315D8F08B3279F038F49D
:1017A000803279F08332A1F4232D20611DC08D3267
:1017B00061F0803369F4232D216016C0832D82608F
:1017C000382EE32DE4603E2E2AC0F32DF8601DC0B4
:1017D00037FC2DC020ED280F2A3040F08E32B9F4AE
:1017E00036FC81C1232D2064322E19C036FE06C07E
:1017F0008AE0989E200D1124922E11C0EAE02E9EC0
:10180000200D1124222EF32DF0623F2E08C08C36BD
:1018100021F4832D8068382E02C0883641F4F70108
:1018200093FD859193FF81917F018111B3CF982F13
:101830009F7D9554933028F40C5F1F4F9FE399834D
:101840000DC0833631F0833771F0833509F059C00C
:1018500021C0F801808189830E5F1F4F8824839403
:10186000912C530113C02801F2E04F0E511CF801D6
:10187000A080B18036FE03C0692D70E002C06FEF1A
:101880007FEFC5010E94880D4C018201F32DFF7787
:101890003F2E16C0280122E0420E511CF801A08004
:1018A000B18036FE03C0692D70E002C06FEF7FEF9C
:1018B000C5010E947D0D4C01F32DF0683F2E820181
:1018C00033FC1BC0822D90E088169906B0F4B60157
:1018D00080E290E00E94930D2A94F4CFF50137FC4A
:1018E000859137FE81915F01B60190E00E94930DD2
:1018F00021102A9421E0821A91088114910471F731
:10190000E8C0843611F0893641F5F80137FE07C08A
:1019100060817181828193810C5F1F4F08C060815B
:101920007181072E000C880B990B0E5F1F4FF32D52
:10193000FF763F2E97FF09C0909580957095619531
:101940007F4F8F4F9F4FF0683F2E2AE030E0A3017A
:101950000E94CF0D882E861845C0853731F4232D7F
:101960002F7EB22E2AE030E025C0932D997FB92E2C
:101970008F36C1F018F4883579F0B5C0803719F08A
:10198000883721F0B0C0E92FE061BE2EB4FE0DC053
:10199000FB2DF460BF2E09C034FE0AC0292F26603B
:1019A000B22E06C028E030E005C020E130E002C0E1
:1019B00020E132E0F801B7FE07C0608171818281C9
:1019C00093810C5F1F4F06C06081718180E090E0C1
:1019D0000E5F1F4FA3010E94CF0D882E8618FB2D8E
:1019E000FF773F2E36FE0DC0232D2E7FA22E8914A9
:1019F00058F434FE0BC032FC09C0832D8E7EA82E15
:101A000005C0B82CA32C03C0B82C01C0B92CA4FE6F
:101A10000FC0FE01E80DF11D8081803321F49A2D65
:101A2000997EA92E09C0A2FE06C0B394B39404C047
:101A30008A2D867809F0B394A3FC11C0A0FE06C0DD
:101A4000B21488F4280C922C9B180EC0B21460F4C7
:101A5000B60180E290E00E94930DB394F7CFB214E8
:101A600018F42B1802C0982C212CA4FE10C0B6012B
:101A700080E390E00E94930DA2FE17C0A1FC03C07A
:101A800088E790E002C088E590E0B6010CC08A2D9E
:101A9000867859F0A1FE02C08BE201C080E2A7FC6B
:101AA0008DE2B60190E00E94930D891438F4B601DE
:101AB00080E390E00E94930D9A94F7CF8A94F3010B
:101AC000E80DF11D8081B60190E00E94930D811018
:101AD000F5CF222009F442CEB60180E290E00E94C8
:101AE000930D2A94F6CFF6018681978102C08FEF7D
:101AF0009FEF2B96E2E10C94490EFC01059061509A
:101B000070400110D8F7809590958E0F9F1F089513
:101B1000FC016150704001900110D8F780959095BC
:101B20008E0F9F1F08950F931F93CF93DF93FB0199
:101B3000238121FD03C08FEF9FEF2CC022FF16C031
:101B400046815781248135814217530744F4A0818F
:101B5000B1819D012F5F3F4F318320838C9326817C
:101B600037812F5F3F4F3783268314C08B01EC01F1
:101B7000FB010084F185E02D0995892BE1F6D80160
:101B800016968D919C911797019617969C938E931C
:101B90001697CE01DF91CF911F910F910895FA0111
:101BA000AA27283051F1203181F1E8946F936E7F9C
:101BB0006E5F7F4F8F4F9F4FAF4FB1E03ED0B4E08D
:101BC0003CD0670F781F891F9A1FA11D680F791FCE
:101BD0008A1F911DA11D6A0F711D811D911DA11DDF
:101BE00020D009F468943F912AE0269F11243019EF
:101BF000305D3193DEF6CF010895462F4770405D8A
:101C00004193B3E00FD0C9F7F6CF462F4F70405D38
:101C10004A3318F0495D31FD4052419302D0A9F793
:101C2000EACFB4E0A6959795879577956795BA958D
:101C3000C9F700976105710508959B01AC010A2E53
:101C400006945795479537952795BA95C9F7620F2A
:101C5000731F841F951FA01D08952F923F924F92CE
:101C60005F926F927F928F929F92AF92BF92CF922C
:101C7000DF92EF92FF920F931F93CF93DF93CDB735
:101C8000DEB7CA1BDB0B0FB6F894DEBF0FBECDBFAD
:101C900009942A88398848885F846E847D848C847E
:101CA0009B84AA84B984C884DF80EE80FD800C8187
:101CB0001B81AA81B981CE0FD11D0FB6F894DEBF6A
:0C1CC0000FBECDBFED010895F894FFCFDA
:101CCC000101010001020304050607082575004DFA
:101CDC006F646F0041004D00542E566400542E5614
:101CEC006D00542E416D003C00632F6D696E002019
:101CFC00456D657267656E63696100204964656E48
:101D0C007469666963616461002041636964656E2E
:101D1C00746500204964656E746966696361646FFB
:101D2C000053616D7520612063616D696E686F0091
:101D3C004E6F746966696361722053545450006D20
:0C1D4C006D2F6800202020006C757800CE
:00000001FF
